:100000000C9416270C9447270C9447270C944727E9
:100010000C9447270C9447270C9447270C94E8BF6F
:100020000C9447270C9447270C9447270C94472798
:100030000C9447270C9447270C9447270C940DD217
:100040000C9447270C9447270C9447270C94472778
:100050000C9447270C9447270C9447270C94472768
:100060000C9447270C9492C00C94C1C00C94472761
:100070000C9447270C9447270C9447270C94472748
:100080000C9447270C9447270C9447270C94472738
:100090000C94FCC00C942BC10C9447270C94A8C45E
:1000A0000C9447270C943AD20C9447270C9447277A
:1000B0000C9447270C9447270C9467D20C9447273D
:1000C0000C9447270C9447270C94C5CA0C9466C11E
:1000D0000C9495C10C9447270C9447270C94472700
:1000E0000C944727FD4C494D524D1F4D384D5B4DEB
:1000F000EA4DA24D994D864DAB4DC04DD34D644D4B
:10010000734DF64C044EF34D1D4E254EF64C2D4EC0
:10011000F64C3F4EF64C154EE959C35A615BF25905
:100120001C5A155A755A075AF75A235AF75A7C5AC5
:10013000F75A615B825AA45ABA5A726083608C6023
:1001400097604A63E2604A63406146614F614A6377
:1001500089605A614A636C6176610E634A634A63DF
:100160004A634A634A6317631E6325632E633E63D3
:100170009D678A6AE967B667C767FA672D688A6A02
:100180008A6ACD688A6A71688A6A1C688A6A8A6A19
:100190000069196932698A6AD8678268B4688A6AAC
:1001A000DE680B688A6A9B688A6A4B695C698A6A3E
:1001B0008A6A3E684F6860688A6A6D699D69EF68FF
:1001C000B6698A6A8A6A8A6AC769D269E369F46920
:1001D000056A166A276A82787178E2789E799A7B36
:1001E0008B7BAB7DAE7A6C82547C6C82AE7D6C82F4
:1001F000C57DD57DD37EDC7FAB79B479CE79AB7DFF
:10020000B4797A7A7D7A72C772C777C777C777C7AA
:100210007CC77CC77CC78FC781C781C79CC7A0C765
:10022000A6C7AAC7AEC7B4C7B8C7BCC7CBC7C2C7E3
:10023000C6C7D6C7DAC7E0C7E4C7E8C7EEC7F2C784
:10024000F6C705C8FCC700C81FC824C829C82EC8DF
:1002500033C838C83DC842C850C847C84CC87FC812
:1002600084C889C88EC893C898C89DC8A2C8B1C898
:10027000A7C8ACC82CD644D648D64CD650D675D6CE
:1002800054D675D675D675D658D65CD660D65AE390
:100290005AE36AE38AE381E392E39AE3ADE3C8E3D6
:1002A00005E45AEB60EB67EB6EEB7CEB92EB9AEBC1
:1002B00076EC6FEC85EC92ECAAECC3ECCFEC13F38C
:1002C0000EF31AF31EF329F344F368F371F39CF36E
:1002D00097F3A5F3AAF3AEF3BEF3C8F374F76DF783
:1002E0007DF788F798F7ADF7CDF7F0F7FBF7B8F89B
:1002F000B1F8C0F8CAF8DEF8F4F80BF929F935F9C5
:100300009205A404AC03A203AC03AC037203D403B0
:10031000AC03AC033004D6042204AC03AC03AC033E
:10032000AC03AC03AC03AC03AC03AC03AC03AC0355
:10033000D404AC03AC03AC03AC03AC03AC03AC031C
:10034000DC038603AC037404FC04AC03C802EC02B7
:10035000AC03AC03AC03AC03360364039E0540045A
:1003600094057C03D203D6031A048A04A4038E05E1
:100370000004F404EE0446030003E2049C030603B5
:1003800002038605F603000564049C04A804040423
:10039000C205C404D204B4040C04B4026E054003C4
:1003A000B2048205FA03780478045C047A047A04BF
:1003B0007A047A047A047A0478047A047A047A044F
:1003C0007A045C045C045C045C045C045C047A04F1
:1003D0007A04780478045C041A031A031E041A03CE
:1003E0001A031E041E040803CE020803CE020803EB
:1003F000CE02080340054005400540054005400584
:1004000040054005400584050803CE020803CE02DE
:100410000803CE020803CE02080384050803400542
:100420004005CE0208034005CE020803CE020803B1
:1004300084056C05AC046C05AC046C05AC046C055F
:10044000AC046C05AC041C041C041C048C048C045B
:100450001C041C041C048C048C04F803F803F8032B
:10046000BC02BC02F803F803F803BC02BC02E203BE
:10047000EE03E203EE03E203EE03E203EE03E20324
:10048000BE05036EDB363D9A9999993DABAAAA2A1F
:100490003E000000803F084AD73B3BCE016E84BC43
:1004A000BFFDC12F3D6C74319ABD56833DDA3D00CE
:1004B000C77F11BED9E4BB4C3E916BAAAABE000017
:1004C00000803F072C7AA5BA6CC590DA3B9365FC97
:1004D0008BBC53F810FD3C5692834DBD879D3AB6B8
:1004E0003DCBC9BF5BBE73DA0FC93F05A84CCDB287
:1004F000D44EB93836A9020C50B9918688083CA66A
:10050000AAAA2ABE000000803F08000000BE922474
:1005100049123EABAAAA2ABECDCCCC4C3E0000006C
:1005200080BEABAAAAAA3E00000000BF0000008067
:100530003F0000000000084178D3BB4387D1133D42
:10054000190E3CC3BD4282AD2B3E68EC8276BED90B
:100550008FE1A93E4C80EFFFBE01C4FF7F3F00004A
:10056000000000000D94E74B0D94B1330D942774F7
:100570000D94D87F0D9440B20D94B0DB0D94541CB3
:100580000D94AF2C0D94DC040D94914A0D945A2EC9
:100590000D94BB060D940AB20D9458590D94C2D90E
:1005A0000D94781A0D94499B0D94D4920D94E70FF5
:1005B0000D9415B20D947F0A0D9469850D94DC7528
:1005C0000D94876C0D94C8010D9406560D94460544
:1005D0000D94CE0D0D9418BC0D94E0060D94EA4ACE
:1005E0000D9492A40D94FA2C0D9495CD0D94599FD1
:1005F0000D94539E0D947A080D94B5020D94776D69
:100600000D941E320D947E320D940C020D945E32C8
:100610000D9410DA0D9404B70D94E7500D9408472B
:100620000D949C4A0D940F890D94ED500D94DB9719
:100630000D9455730D94E0D80D94AF020D94F79777
:100640000D94CF8C0D9433820D940E150D94989DBE
:100650000D94D1A10D9406150D9464390D94A03616
:100660000D9483150D94F68F0D9411170D94AB070F
:100670000D945C550D94ED810D9437970D9411A751
:100680000D94DB330D9471240D944F550D94EE3180
:100690000D94414C0D9438AA0D942AA20D948255C4
:1006A0000D9454460D94866F0D944A960D9443A272
:1006B0000D941FC50D949E510D942D7D0D94B6493A
:1006C0000D94D6B30D9449550D94B9300D942078FE
:1006D0000D948B270D94E8080D9412B20D94039796
:1006E0000D9439090D94C8060D94620A0D941220D8
:1006F0000D944E7F0D9447270D940E310D9452DDCD
:100700000D94DA5E0D9437540D94CE030D941807B2
:100710000D9481B60D94F5130D94129B0D944BD24C
:100720000D94A96B0D94192C0D94B5A00D9423195B
:100730000D94B2AB0D94B02F0D944C320D94C1BDFD
:100740000D9412190D9471070D9485310D94D39D5C
:100750000D944C050D9479970D941E080D94C1A825
:100760000D9466920D9452550D94893C0D94BE7370
:100770000D947F040D9498AE0D9473840D940075C0
:100780000D9451130D94175B0D9414150D94B01125
:100790000D9424520D947C030D9488000D942E56D4
:1007A0000D94B4500D942F310D94F1060D94393100
:1007B0000D94B8AE0D9450700D9494060D94AE1F28
:1007C0000D949BC80D94CDDB0D94C85B0D94014135
:1007D0000D9483A10D94F6B40D9456280D94CFDB9F
:1007E0000D94F6380D9486350D94600E0D94C0323C
:1007F0000D94AEDB0D942F340D9491430D94278FFF
:100800000D94A7310D9413720D9429330D9405980E
:100810000D9490090D9437CE0D9493330D9456702A
:100820000D94FDB10D9451B20D94EE050D94D19F30
:100830000D949F190D945E310D948EDB0D94E9D8C3
:100840000D943B7C0D94C6070D94D5500D943D6ED0
:100850000D943D150D949A6F0D94391C0D948C6F69
:100860000D949E070D94F1C30D94EC4E0D944ACA5D
:100870000D941B4C0D94F9560D94C1530D943401F5
:100880000D94D3300D94FF970D9439B50D9461C834
:100890000D944C660D9441870D94197B0D94AD30E9
:1008A0000D94979D0D94E2080D9464A10D94CD4F85
:1008B0000D9468830D94E4130D9466960D94E9509D
:1008C0000D94519C0D94D7500D9409330D94C7533A
:1008D0000D943A010D947BC70D94E2250D94A580EB
:1008E0000D9433A30D94721A0D9458070D9400566D
:1008F0000D9460960D9469960D9429B20D949C8088
:100900000D94446E0D94615A0D94B8D50D94CA049B
:100910000D9402140D9464310D9490DB0D94CE4926
:100920000D94E75D0D9498510D94A5130D942F9798
:100930000D9478710D9400B20D940F330D94835E75
:100940000D942A520D9482030D9433070D94C43DE7
:100950000D9415330D9412020D947BDB0D94B6A209
:100960000D9419190D94F5330D9474330D94D00C26
:100970000D945B500D94F4340D94923B0D94FEB69F
:100980000D94AB4F0D944B8A0D944D330D944F0F36
:100990000D945A1C0D949D820D944E710D94AFAC24
:1009A0000D944B950D945D330D94E1070D94FF0765
:1009B0000D9402B20D94C39F0D9422B30D94676EF3
:1009C0000D948C0E0D942C320D94E5D10D94F164A0
:1009D0000D9440040D94A1580D94EF500D94D7310F
:1009E0000D941B190D941D190D94B2310D94AD4A3F
:1009F0000D9498C30D94BE7E0D9402070D94526D14
:100A00000D94D7320D94C0560D94BA500D94C3CBAB
:100A10000D94F4A50D94982B0D94C6130D949D8AF6
:100A20000D94E6C40D94E20B0D946AA10D94960901
:100A30000D94946F0D94CF960D94D0230D940AAC21
:100A40000D94322F0D94A5970D94C5C50D947B4C34
:100A50000D9421290D9421AB0D94999E0D9432187B
:100A60000D94189B0D9473C60D94A74A0D949F1373
:100A70000D949A570D946E0D0D94FAB10D94560B7A
:100A80000D9481DA0D94350E0D94F7500D94E92FE5
:100A90000D94F3560D94D3500D94BB550D949F9225
:100AA0000D942DD60D946B800D9488220D944FA239
:100AB0000D94F4550D9474080D94F8C00D94FE1423
:100AC0000D9434560D943A9C0D94AFA00D940ABD2C
:100AD0000D940E560D9458120D9476DB0D94CC3374
:100AE0000D94FCE20D94EB500D9427300D94FD50C5
:100AF0000D94EC720D9484110D941B240D946ABA1C
:100B00000D94229E0D9410340D9412DA0D949032AF
:100B10000D94BD9F0D94969D0D94929D0D949331CF
:100B20000D9479C40D94A0060D94FF300D9431C13D
:100B30000D94E60A0D94C69B0D94D7360D94CD30D6
:100B40000D9455A20D94F1940D94060F0D940D4A39
:100B50000D947CB20D947B930D941D5B0D94D66E19
:100B60000D94256B0D94C9D40D94E2C70D94001F0C
:100B70000D943F260D9455500D94DA410D94D1DB20
:100B80000D9427430D943F330D941AA30D94B0494F
:100B90000D94CC130D9403D30D94C99F0D94F120A3
:100BA0000D946DBE0D944C5552656163686564206B
:100BB000436F6D6D616E642023256900526561632A
:100BC00068656420436F6D6D616E64202325690044
:100BD00044434D206261642068656164696E67000A
:100BE00043726173683A2044697361726D696E671C
:100BF000004175746F54756E653A204661696C6585
:100C000064004175746F54756E653A205375636363
:100C1000657373004175746F54756E653A20537433
:100C20006F70706564004175746F54756E653A201D
:100C300053746172746564004D6F746F72205465F3
:100C400073743A20536166657479205377697463CD
:100C500068004D6F746F7220546573743A20766526
:100C60006869636C65206E6F74206C616E64656486
:100C7000004D6F746F7220546573743A2052432094
:100C80006E6F742063616C69627261746564006187
:100C9000626C65640A0064697300656E000A436FE4
:100CA0006D4D6F7425643A2025342E32662C202534
:100CB000342E32662C2025342E32660A004375729B
:100CC00072656E74005468726F74746C65004F6660
:100CD000660A004D6F746F7220436F6D703A20008A
:100CE0004D61672564206F66663A2025342E346690
:100CF0002C2025342E34662C2025342E34660A0010
:100D00004D6167204465633A2025342E34660A001D
:100D1000436F6D706173730A004661696C6564218D
:100D20000043616C6962726174696F6E2053756310
:100D30006365737366756C21005448524F54544C6C
:100D4000450043555252454E540053544152544964
:100D50004E472043414C4942524154494F4E004E68
:100D60006F74206C616E64656400746872206E6FCD
:100D700074207A65726F005243206E6F7420636135
:100D80006C6962726174656400636865636B20639B
:100D90006F6D7061737300636F6D70617373206446
:100DA000697361626C65640A004672616D653A2020
:100DB000515541440041726475436F7074657220EF
:100DC00056332E322E3100434F4D5041535320495C
:100DD0004E4954204552524F5200455343206361BF
:100DE0006C20696E7075743A202575202575202554
:100DF0007520257520206F75747075743A202575DF
:100E00002025752025752025750A0045534320436C
:100E1000616C3A2070617373696E67207468726FD9
:100E200074746C65207468726F75676820746F20C5
:100E3000455343732E0A00456E746572696E6720D0
:100E40004553432043616C3A207265737461727438
:100E50002041504D2E0A004C6F672065726173650A
:100E600020636F6D706C6574650A0045726173690B
:100E70006E67206C6F67730A006C6F61645F616CF2
:100E80006C20746F6F6B20256C7575730A00646F2E
:100E90006E652E004669726D7761726520636861C8
:100EA0006E67653A2065726173696E6720454550CB
:100EB000524F4D2E2E2E0A00426164207661722020
:100EC0007461626C650042616420766172207461B5
:100ED000626C650A002D004657205665723A20253F
:100EE000640A00496E697469616C6973696E672090
:100EF00041504D2E2E2E000A526561647920746F88
:100F000020464C59200045524153494E47204C4FF2
:100F10004753004E6F2064617461666C6173682092
:100F2000696E736572746564000A0A496E6974209B
:100F300041726475436F707465722056332E322E81
:100F4000310A0A467265652052414D3A2025750ADC
:100F5000004C6F73742047505321004C6F77204230
:100F600061747465727921005472696D20736176C1
:100F70006564006261726F6D657465722063616C97
:100F80006962726174696F6E20636F6D706C6574F5
:100F9000650043616C6962726174696E67206261A9
:100FA000726F6D657465720047524F554E44205301
:100FB000544152540041726D3A204779726F206358
:100FC000616C206661696C65640041726D3A205302
:100FD0006166657479205377697463680041726D46
:100FE0003A204C65616E696E670041726D3A20541B
:100FF00068722062656C6F772046530041726D3ACB
:1010000020416C7420646973706172697479004165
:10101000726D3A204D6F6465206E6F742061726D41
:1010200061626C650050726541726D3A2048696773
:1010300068204750532048444F5000507265417219
:101040006D3A204261642056656C6F636974790063
:1010500050726541726D3A204E65656420334420BC
:101060004669780050726541726D3A2047505320AE
:10107000476C697463680050726541726D3A204133
:1010800043524F5F42414C5F524F4C4C2F5049549A
:1010900043480050726541726D3A20436865636B46
:1010A00020414E474C455F4D41580050726541729A
:1010B0006D3A20436865636B2046535F5448525F26
:1010C00056414C55450050726541726D3A20436857
:1010D0003726436838204F70742063616E6E6F74DA
:1010E0002062652073616D650050726541726D3AD2
:1010F00020436865636B20426F61726420566F6C99
:10110000746167650050726541726D3A204779726B
:101110006F2063616C206661696C65640050726564
:1011200041726D3A204779726F73206E6F74206838
:1011300065616C7468790050726541726D3A204146
:101140006363656C73206E6F74206865616C74688E
:10115000790050726541726D3A20494E53206E6F8E
:10116000742063616C6962726174656400507265B9
:1011700041726D3A20636865636B2066656E6365D6
:101180000050726541726D3A20436865636B206D53
:101190006167206669656C640050726541726D3AE2
:1011A00020436F6D70617373206F6666736574732F
:1011B00020746F6F20686967680050726541726DB6
:1011C0003A20436F6D70617373206E6F742063619A
:1011D0006C696272617465640050726541726D3A47
:1011E00020436F6D70617373206E6F74206865614A
:1011F0006C7468790050726541726D3A20416C746C
:10120000206469737061726974790050726541720B
:101210006D3A204261726F206E6F74206865616C58
:101220007468790050726541726D3A205243206EA5
:101230006F742063616C69627261746564004672E8
:10124000616D653A20515541440041726475436FA8
:10125000707465722056332E322E3100504552463E
:101260003A2025752F257520256C750A008D000103
:1012700000424154545F4D4F4E49544F52000000BC
:101280000000A8000100424154545F564F4C545F87
:1012900050494E00000000A9000100424154545F33
:1012A000435552525F50494E000000008E0004002A
:1012B000424154545F564F4C545F4D554C540000BE
:1012C000008F000400424154545F414D505F50452F
:1012D00052564F4C540091000300424154545F4316
:1012E0004150414349545900000000140002004C91
:1012F0004F475F4249544D41534B000000000000EE
:101300008059464D54000042426E4E5A0000000083
:1013100000000000000000547970652C4C656E6779
:1013200074682C4E616D652C466F726D61742C4330
:101330006F6C756D6E73000000000000000000000F
:10134000000000000000000000000000000000009D
:101350000000000000000081175041524D004E6611
:1013600000000000000000000000000000004E61CE
:101370006D652C56616C7565000000000000000072
:10138000000000000000000000000000000000005D
:10139000000000000000000000000000000000004D
:1013A0000000000000000000000000000000822D8E
:1013B000475053000042494842634C4C65654565BF
:1013C00066490000005374617475732C54696D652F
:1013D0004D532C5765656B2C4E536174732C4844E8
:1013E0006F702C4C61742C4C6E672C52656C416C88
:1013F000742C416C742C5370642C474372732C56BC
:101400005A2C540000831F494D55000049666666FA
:1014100066666600000000000000000054696D650B
:101420004D532C477972582C477972592C47797251
:101430005A2C416363582C416363592C4163635AAE
:10144000000000000000000000000000000000009C
:1014500000000000000000000000000084434D5325
:101460004700005A000000000000000000000000DB
:101470000000004D657373616765000000000000A7
:10148000000000000000000000000000000000005C
:10149000000000000000000000000000000000004C
:1014A000000000000000000000000000000000003C
:1014B00000000085235243494E0049686868686807
:1014C0006868686868686868680054696D654D5345
:1014D0002C43312C43322C43332C43342C43352CB6
:1014E00043362C43372C43382C43392C4331302C92
:1014F0004331312C4331322C4331332C43313400CE
:1015000000000000000000000000861752434F5505
:101510000049686868686868686800000000000042
:101520000054696D654D532C4368616E312C4368DE
:10153000616E322C4368616E332C4368616E342CCB
:101540004368616E352C4368616E362C4368616E6A
:10155000372C4368616E3800000000000000000076
:101560000088154241524F004966666366000000DC
:10157000000000000000000054696D654D532C41CF
:101580006C742C50726573732C54656D702C4352BF
:1015900074000000000000000000000000000000D7
:1015A000000000000000000000000000000000003B
:1015B0000000000000000000890D504F5752004904
:1015C00043434800000000000000000000000054F9
:1015D000696D654D532C5663632C56536572766F57
:1015E0002C466C61677300000000000000000000E2
:1015F00000000000000000000000000000000000EB
:101600000000000000000000000000000000009149
:1016100029434D4400004948484866666666666648
:1016200066000000000054696D654D532C43546FF3
:10163000742C434E756D2C4349642C50726D312CC3
:1016400050726D322C50726D332C50726D342C4CA4
:1016500061742C4C6E672C416C740000000000001B
:101660000000000000009210524144000049424234
:101670004242424848000000000000000054696DEA
:10168000654D532C525353492C52656D5253534957
:101690002C54784275662C4E6F6973652C52656DBB
:1016A0004E6F6973652C52784572726F72732C4657
:1016B00069786564000000000000000000941F438A
:1016C000414D000049484C4C656563634300000090
:1016D0000000000047505354696D652C4750535724
:1016E00065656B2C4C61742C4C6E672C416C742CB2
:1016F00052656C416C742C526F6C6C2C5069746325
:10170000682C596177000000000000000000000014
:101710000000000019194154554E004242666666A9
:101720006666000000000000000000417869732C2C
:1017300054756E65537465702C526174654D696E95
:101740002C526174654D61782C52504761696E2C42
:1017500052444761696E2C53504761696E00000026
:1017600000000000000000000000001A094154447D
:10177000450063660000000000000000000000005B
:101780000000416E676C652C5261746500000000BA
:101790000000000000000000000000000000000049
:1017A0000000000000000000000000000000000039
:1017B0000000000000000000000000000000000029
:1017C0000000091743555252004968496868686625
:1017D00000000000000000000054696D654D532CAE
:1017E0005468724F75742C546872496E742C566F1D
:1017F0006C742C437572722C5663632C4375727231
:10180000546F7400000000000000000000000000A1
:101810000000000000000000000C144F4600000013
:101820006868426363656500000000000000000016
:1018300044782C44792C535175616C2C582C592CBC
:10184000526F6C6C2C5069746368000000000000DB
:101850000000000000000000000000000000000088
:101860000000000000000000000000000000000078
:10187000052F4E54554E0049666666666666666676
:101880006666000000000054696D654D532C44509D
:101890006F73582C44506F73592C506F73582C50E1
:1018A0006F73592C4456656C582C4456656C592CF2
:1018B00056656C582C56656C592C44416363582C02
:1018C0004441636359000004214354554E00496864
:1018D00068686666656363686800000000005469B4
:1018E0006D654D532C546872496E2C416E6742737E
:1018F000742C5468724F75742C44416C742C416C78
:10190000742C426172416C742C4453416C742C539E
:10191000416C742C444352742C43527400000F19D0
:101920004D414700004968686868686868686800F1
:10193000000000000054696D654D532C4D616758DF
:101940002C4D6167592C4D61675A2C4F6673582C8A
:101950004F6673592C4F66735A2C4D4F6673582C33
:101960004D4F6673592C4D4F66735A0000000000AE
:1019700000000000000611504D0000004848496872
:101980004248420000000000000000004E4C6F6E14
:101990002C4E4C6F6F702C4D6178542C504D542C44
:1019A0004932434572722C494E534572722C494E4E
:1019B0004156457272000000000000000000000067
:1019C000000000000000000000000000011741546A
:1019D00054000049636363634343434300000000D2
:1019E00000000054696D654D532C446573526F6C53
:1019F0006C2C526F6C6C2C44657350697463682C4A
:101A000050697463682C4465735961772C59617708
:101A10002C45727252502C45727259617700000049
:101A200000000003064D4F4445004D6800000000D3
:101A3000000000000000000000004D6F64652C54A1
:101A40006872437273000000000000000000000094
:101A50000000000000000000000000000000000086
:101A60000000000000000000000000000000000076
:101A7000000000000000000000000A03535452540C
:101A80000000000000000000000000000000000056
:101A90000000000000000000000000000000000046
:101AA0000000000000000000000000000000000036
:101AB0000000000000000000000000000000000026
:101AC0000000000000000000000000000000000016
:101AD000000D044556000000420000000000000018
:101AE0000000000000000000496400000000000049
:101AF00000000000000000000000000000000000E6
:101B000000000000000000000000000000000000D5
:101B100000000000000000000000000000000000C5
:101B200000000000000000001406443136000042AE
:101B300068000000000000000000000000000049F4
:101B4000642C56616C756500000000000000000008
:101B50000000000000000000000000000000000085
:101B60000000000000000000000000000000000075
:101B70000000000000000000000000000000001550
:101B800006445531360042480000000000000000C5
:101B900000000000000049642C56616C756500006F
:101BA0000000000000000000000000000000000035
:101BB0000000000000000000000000000000000025
:101BC0000000000000000000000000000000000015
:101BD0000000000000001608443332000042690093
:101BE0000000000000000000000000000049642C1C
:101BF00056616C75650000000000000000000000E8
:101C000000000000000000000000000000000000D4
:101C100000000000000000000000000000000000C4
:101C20000000000000000000000000000017084451
:101C3000553332004249000000000000000000005F
:101C40000000000049642C56616C756500000000BE
:101C50000000000000000000000000000000000084
:101C60000000000000000000000000000000000074
:101C70000000000000000000000000000000000064
:101C800000000000180844464C5400426600000062
:101C9000000000000000000000000049642C5661B4
:101CA0006C756500000000000000000000000000EE
:101CB0000000000000000000000000000000000024
:101CC0000000000000000000000000000000000014
:101CD0000000000000000000000000130545525203
:101CE0000000424200000000000000000000000070
:101CF00000005375627379732C45436F646500006F
:101D000000000000000000000000000000000000D3
:101D100000000000000000000000000000000000C3
:101D200000000000000000000000000000000000B3
:101D3000000049600100640004460200C2012965F8
:101D4000020084033E640A00D0024E630A0032009F
:101D5000678F0A000A004A2E0A008C00A2400A007F
:101D6000E803B78D040020032D35010032001D6704
:101D700021005A00F22B0200A4014A270200FA00B7
:101D8000ED2B02006400464B6400A401F55C0A00E0
:101D900014005D480A0014005C2B02002602582B38
:101DA00064009600542B0200D002B54F0200B60327
:101DB000332B0200C201F63A0A002C01E03A02007D
:101DC000DC00A06AE803C80072330A003200025344
:101DD000595349445F53575F4D5245560000000028
:101DE00000A312000000000153595349445F5357A8
:101DF0005F545950450000000001A5120000204129
:101E00000253595349445F544849534D41560000C9
:101E1000000070A6120000803F0253595349445FEE
:101E20004D5947435300000000000071A812000004
:101E30007F430253455249414C305F424155440073
:101E40000000000031AA120000E642025345524948
:101E5000414C315F42415544000000000032AC1259
:101E6000000064420154454C454D5F44454C415986
:101E700000000000000073AE120000000002525487
:101E80004C5F414C5400000000000000000000A026
:101E9000AF120080BB4404524E47464E445F474158
:101EA000494E0000000000001EB112CDCC4C3F0195
:101EB00046535F424154545F454E41424C450000F9
:101EC00000C1B512000000000446535F4241545463
:101ED0005F564F4C54414745000097B6120000280A
:101EE000410446535F424154545F4D414800000055
:101EF00000000025BA12000000000146535F475061
:101F0000535F454E41424C4500000000C3BE1200E5
:101F100000803F0146535F4743535F454E41424C6B
:101F20004500000000C6BF120000803F024750532A
:101F30005F48444F505F474F4F440000000023C0AC
:101F40001200006643014D41475F454E41424C45FA
:101F50000000000000000092C2120000803F014615
:101F60004C4F575F454E41424C4500000000000079
:101F700096C312000000000153555045525F53496B
:101F80004D504C4500000000009BC41200000000B2
:101F90000252544C5F414C545F46494E414C000044
:101FA0000000A3C5120000000001525353495F50C6
:101FB000494E00000000000000000018C712000099
:101FC00080BF04525353495F52414E4745000000C1
:101FD0000000000027C8120000A0400157505F59C0
:101FE00041575F4245484156494F5200001ACC12B2
:101FF000000000400352544C5F4C4F49545F544919
:102000004D4500000000A2D21200409C45024C4108
:102010004E445F535045454400000000000000D985
:10202000D612000048420250494C4F545F56454C6E
:102030005A5F4D41580000001CD81200007A43023C
:1020400050494C4F545F414343454C5F5A00000098
:102050000030DA1200007A43025448525F4D494E74
:1020600000000000000000000000B4DC12000002CC
:1020700043025448525F4D415800000000000000E8
:10208000000000B5DE1200007A440146535F544858
:10209000525F454E41424C4500000000B6E0120040
:1020A0000000000246535F5448525F56414C55456C
:1020B0000000000000B8E11200C07344025452490D
:1020C0004D5F5448524F54544C4500000000B9E352
:1020D000120000E143025448525F4D4944000000A1
:1020E00000000000000000C2E5120000FA430254A4
:1020F00048525F445A000000000000000000000049
:1021000039E7120000C84201464C544D4F44453156
:10211000000000000000000000C8E91200000000FC
:1021200001464C544D4F4445320000000000000071
:102130000000C9EA120000000001464C544D4F4413
:102140004533000000000000000000CAEB12000050
:10215000000001464C544D4F44453400000000003F
:1021600000000000CBEC120000000001464C544D72
:102170004F444535000000000000000000CCED1287
:102180000000000001464C544D4F4445360000000D
:10219000000000000000CDEE120000000001464CDF
:1021A000544D4F444537000000000000000000CEB1
:1021B000EF120000000001464C544D4F44453800DA
:1021C0000000000000000000CFF01200000000013D
:1021D000464C544D4F4445390000000000000000BB
:1021E00000D0F112000000000153494D504C450051
:1021F00000000000000000000000D1F2120000000A
:1022000000034C4F475F4249544D41534B0000007F
:102210000000003CF31200805F440145534300007E
:10222000000000000000000000000000BAF71200EB
:102230000000000154554E45000000000000000061
:102240000000000000BBF812000000000254554ED0
:10225000455F4C4F57000000000000000000BDFB30
:1022600012000000000254554E455F48494748009F
:1022700000000000000000BCF91200007A44014692
:1022800052414D4500000000000000000000000029
:1022900095FD120000803F014348375F4F505400C6
:1022A00000000000000000000098FE120000000086
:1022B000014348385F4F5054000000000000000008
:1022C00000001FFF12000000000141524D494E471F
:1022D0005F434845434B000000000020001300000E
:1022E000803F02414E474C455F4D41580000000081
:1022F0000000000022531500A08C450152435F46A8
:1023000045454C5F52500000000000000028CD12EF
:102310000000C8420250484C445F4252414B455F66
:102320005241544500002ECE120000004102504898
:102330004C445F4252414B455F414E474C45002F54
:10234000D01200803B45014C414E445F5245504FF6
:10235000534954494F4E00003401130000803F049C
:10236000454B465F434845434B5F544852455348AD
:1023700000360213CDCC4C3F0444434D5F434845E7
:10238000434B5F544852455348003B0613CDCC4C59
:102390003F085243315F00000000000000000000D1
:1023A000000000AA0A13CF3C0000085243325F002D
:1023B000000000000000000000000000AB2713CF69
:1023C0003C0000085243335F0000000000000000A2
:1023D0000000000000AC4413CF3C0000085243341E
:1023E0005F00000000000000000000000000AD6180
:1023F00013CF3C0000085243355F0000000000008E
:1024000000000000000000AE7E13653D0000085291
:1024100043365F00000000000000000000000000E4
:10242000AF9C13653D0000085243375F0000000079
:10243000000000000000000000B0BA13653D00007D
:10244000085243385F000000000000000000000058
:102450000000B1D813653D000008524331305F00E1
:102460000000000000000000000000B2F613653D0F
:10247000000008524331315F0000000000000000FE
:1024800000000000B31414653D00000252435F5386
:1024900050454544000000000000000000C0321418
:1024A0000000F543044143524F5F52505F5000001B
:1024B000000000000000DD3414000090400441439F
:1024C000524F5F5941575F5000000000000000F478
:1024D000381400009040044143524F5F42414C5F2A
:1024E000524F4C4C00000000F23C140000803F04AE
:1024F0004143524F5F42414C5F50495443480000B2
:1025000000F340140000803F014143524F5F54529A
:1025100041494E455200000000001B4414000000D9
:1025200040044143524F5F4558504F0000000000A7
:102530000000003845149A99993E08524154455F6D
:10254000524C4C5F0000000000000000DF49147195
:102550003B000008524154455F5049545F00000061
:102560000000000000E06714713B00000852415475
:10257000455F5941575F0000000000000000E18501
:1025800014713B0000084C4F495445525F4C415474
:102590005F000000000000E7A314713B0000084C3E
:1025A0004F495445525F4C4F4E5F00000000000001
:1025B000E8C114713B0000085448525F5241544531
:1025C0005F0000000000000000ECDF143F3B000053
:1025D000085448525F414343454C5F0000000000EF
:1025E0000000F1E314713B0000084F465F524C4C71
:1025F0005F00000000000000000000ED0115713BCD
:102600000000084F465F5049545F00000000000082
:1026100000000000EE1F15713B0000085354425F9C
:10262000524C4C5F000000000000000000E2411529
:102630003F3B0000085354425F5049545F00000084
:10264000000000000000E345153F3B000008535424
:10265000425F5941575F000000000000000000E4A5
:1026600049153F3B0000085448525F414C545F00FD
:102670000000000000000000EB4D153F3B0000088B
:10268000484C445F4C41545F0000000000000000D3
:1026900000E53D153F3B00000843414D5F00000051
:1026A00000000000000000000000A50007BE3F0081
:1026B000000852454C41595F000000000000000036
:1026C0000000000D2A07733F000008434F4D5041A2
:1026D00053535F00000000000000000093541046B8
:1026E00036000008494E535F000000000000000063
:1026F000000000000003EE0FB038000008494E4112
:10270000565F00000000000000000000000064AB05
:1027100009164200000857504E41565F0000000065
:1027200000000000000000657007AC420000084394
:102730004952434C455F00000000000000000000CB
:1027400068390761420000084154435F00000000FF
:10275000000000000000000000662C09EE3B0000B5
:1027600008504F53434F4E5F000000000000000030
:1027700000006749089D3C0000085352305F00008C
:1027800000000000000000000000006E380C22294C
:102790000000085352315F000000000000000000FC
:1027A000000000006F0F0D2229000008414852531D
:1027B0005F0000000000000000000000009F280EE5
:1027C000FA390000084D4E545F0000000000000080
:1027D000000000000000A698065440000008424196
:1027E00054545F00000000000000000000000024BE
:1027F000DE0A034D0000084252445F000000000062
:1028000000000000000000000F110CFD4D0000084A
:10281000474E445F00000000000000000000000080
:10282000000B5411FA330000084750535F000000BA
:102830000000000000000000000010F911F22E005E
:10284000000853434845445F0000000000000000BA
:102850000000000C8E12544C00000846454E4345C3
:102860005F00000000000000000000004568065DF9
:102870004B000008475053474C495443485F000001
:10288000000000000046D9113D2F000008424152CF
:102890004F474C5443485F00000000000000473C95
:1028A000115E340000084D4F545F0000000000002E
:1028B000000000000000005A5D0BDB3D00000852E4
:1028C000434D41505F000000000000000000000088
:1028D000C7120C864C0000084D49535F00000000F1
:1028E0000000000000000000002AE60DF43A00009D
:1028F00008524E47464E4400000000000000000011
:102900000000351C0C603E000000000000000000CC
:1029100000000000000000000000000000000000B7
:10292000000002005241575F53454E530000000023
:10293000000000000066000000000002014558543D
:102940005F53544154000000000000000000680084
:1029500000000000020252435F4348414E00000065
:10296000000000000000006A0000000000020352A6
:1029700041575F4354524C0000000000000000002B
:102980006C00000000000204504F534954494F4E60
:102990000000000000000000006E000000000002C7
:1029A000054558545241310000000000000000006D
:1029B00000007000000000000206455854524132E9
:1029C0000000000000000000000000720000000095
:1029D0000002074558545241330000000000000037
:1029E0000000000074000000000002085041524145
:1029F0004D530000000000000000000000760000C1
:102A000000000000FF0000000000000000000000C7
:102A1000000000000000000000000000426164208F
:102A2000636F6E76657273696F6E2074797065205E
:102A3000272553270A00556E6B6E6F776E20636FE4
:102A40006E76657273696F6E20272553270A0025FD
:102A5000733A2025660A0025733A20256C640A0023
:102A600025733A2025640A0025733A2025640A005C
:102A7000454550524F4D2066756C6C0000000000BB
:102A800000060300000676090200760F5A000100D6
:102A9000D00F300000000000000503000005CA0947
:102AA0000200CA0E96000100600FA0002C76D888A4
:102AB000674F0823C1DFAE59B1B796E5E453C63A74
:102AC00051997696E6C28426898C9B62407C6FFC85
:102AD000BC9C9F40BAA56FA590055A2A5C936B6C6D
:102AE000676DC11BE0E40D47F520E6B5D0ED902EF3
:102AF000009435770080841E0000204E000000C83E
:102B000033333333986E128341EF8D21893BE65581
:102B1000CFFEE6DBD1844B38F77C1D90A4BBE424C8
:102B20003284725E8100C9F1ECA1E53DDCDFE1E3B6
:102B3000E6E8EBEDEFF2F4F7F9FCFE000305080A16
:102B40000C0F111416181B1D202224276E616E0015
:102B5000696E66004572726F723A2041505F48415B
:102B60004C5F4156523A3A415652416E616C6F6722
:102B7000496E206F7574206F66206368616E6E65A4
:102B80006C730D0A00474F494E4720444F574E2063
:102B9000464F522041205245424F4F540D0A00509B
:102BA000414E49433A207363686564756C65723AB7
:102BB0003A73797374656D5F696E697469616C6984
:102BC0007A65642063616C6C65646D6F72652074F6
:102BD00068616E206F6E63650050414E49433A2034
:102BE00041565253656D6170686F72653A3A74610F
:102BF0006B6520757365642066726F6D20696E73F6
:102C00006964652074696D65722070726F636573A5
:102C1000730050414E49433A205350493020777257
:102C200069746520636F6C6C6973696F6E005041E5
:102C30004E49433A2053504930207472616E736696
:102C4000657220636F6C6C6973696F6E00010210AE
:102C500020200808102040102040800201020108B6
:102C60000402010102040810204080804020100866
:102C700004020180040201804020100804020108BF
:102C8000040201010204081020408001020408101F
:102C900020408040050505050705080808080202D0
:102CA00002020A0A080804040404010101010101E6
:102CB00001010303030303030303040707070C0CC9
:102CC0000C0C0C0C0C0C0202020206060606060690
:102CD00006060B0B0B0B0B0B0B0B05000020002348
:102CE00000260029002C002F003200000100000304
:102CF000010601090100002200250028002B002EFA
:102D0000003100340002010000050108010B010040
:102D1000002100240027002A002D0030003300018C
:102D2000010000040107010A01666C6967687420EC
:102D3000706C616E20726563656976656400666CAF
:102D40006967687420706C616E2075706461746569
:102D50002072656A656374656400327C8900EDD910
:102D60006877000000590000000000000000D69FB6
:102D7000DCA81817AA90437327F6B968EDF4DED4DF
:102D800009FEE61C1C84DDE80B99292700000000E1
:102D90000F03000000000099B7335276941500F33A
:102DA0007C000026149E988F0000006A31161D0CCE
:102DB000F1E900E7B73F3600000000000000AF6611
:102DC0009ED0385DD36C20B95400007C77044C80D1
:102DD000387486EDCBFA57CBDC19E2001DDF5506BF
:102DE000E5CB01000000000000000000002A3100D7
:102DF00086DBD0BC5416131586004E44BD7F9A1551
:102E0000159001EA49B51653A78AEAF02FBD34AEF2
:102E100000000000000000000000000000000000B2
:102E200000000000000000000000000000000000A2
:102E30000000000000000000000000000000000092
:102E40000000000000000000000000000000000082
:102E5000000008CC31AA2C532E00204E4D454120B5
:102E60000020534952462000204D544B2000204D55
:102E7000544B313920002075626C6F782000B562A8
:102E800006010300010601124F24505542582C340C
:102E9000312C312C303030332C303030312C333831
:102EA0003430302C302A32360D0A245047434D44FA
:102EB0002C31362C302C302C302C302C302A364112
:102EC0000D0A24505352463130302C302C333834D4
:102ED00030302C382C312C302A33430D0A00C012EC
:102EE00000000096000000C2010000E10000802503
:102EF000000001005459504500000000000000008F
:102F0000000000000002000000803F01024E415618
:102F100046494C54455200000000000000000300E8
:102F20000000004100FF0000000000000000000061
:102F3000000000000000000000000000000100454B
:102F40004E41424C4500000000000000000000001F
:102F500003000000803F04015241444955530000E2
:102F600000000000000000000004000000484304CE
:102F700002414343454C00000000000000000000F7
:102F80000000080000007A4400FF0000000000007C
:102F90000000000000000000000000000000000031
:102FA0000024504D544B3232302C3230302A3243D0
:102FB0000D0A24504D544B3331332C312A32450DF8
:102FC0000A24504D544B3330312C322A32450D0AED
:102FD00024504D544B3339372C302A32330D0A00EC
:102FE0004750565447004750474741004750524DBD
:102FF000430024505352463130332C302C302C3186
:103000002C312A32350D0A24505352463130332C9C
:10301000312C302C302C312A32350D0A24505352A9
:10302000463130332C322C302C302C312A32360DB4
:103030000A24505352463130332C332C302C302C50
:10304000312A32370D0A24505352463130332C3452
:103050002C302C312C312A32300D0A245053524658
:103060003130332C352C302C312C312A32300D0AB2
:1030700024505352463130332C362C302C302C31E6
:103080002A32320D0A24505352463130332C382C18
:10309000302C302C312A32430D0A24505352463101
:1030A00035312C312A33460D0A24505352463130E3
:1030B000362C32312A30460D0A24504D544B3331D0
:1030C000342C302C302C312C312C302C302C302C1A
:1030D000302C302C302C302C302C302C302C302C10
:1030E000302C302A32380D0A24504D544B333330B3
:1030F0002C302A32450D0A24504D544B3331332C99
:10310000312A32450D0A24504D544B3330312C3284
:103110002A32450D0A24505542582C34302C67670A
:10312000612C302C312C302C302C302C302A374272
:103130000D0A24505542582C34302C7674672C30AC
:103140002C312C302C302C302C302A37460D0A24D0
:10315000505542582C34302C726D632C302C302C4E
:10316000302C302C302C302A36370D0A00A0A2002B
:1031700008A60200000000000000A8B0B3A0A20052
:1031800008A60029010000000000D0B0B350414E55
:1031900049433A2044617461466C6173682053501E
:1031A0004944657669636544726976657220736522
:1031B0006D6170686F7265206973206E756C6C004C
:1031C00050414E49433A2044617461466C617368D2
:1031D0002053504944657669636544726976657227
:1031E000206E6F7420666F756E64004C6F672025CB
:1031F000752C2020202073746172742025752C207A
:103200002020656E642025750A000A2575206C6FE4
:1032100067730A000A4E6F206C6F67730A0A004ECC
:10322000756D50616765733A202575202050616780
:103230006553697A653A2025750A004D616E756699
:10324000616374757265723A203078253032782067
:1032500020204465766963653A20307825303478DB
:103260000A004E6F2064617461666C617368206946
:103270006E7365727465640025750A0025752C09E6
:1032800000444620706167652C206C6F672066697A
:103290006C6520232C206C6F6720706167653A2075
:1032A00025752C0900464D542C2025752C2025759C
:1032B0002C2025532C2025532C2025530A002C206C
:1032C00000257300257300257300252E3266002526
:1032D0002E326600252E326600252E3266002566C7
:1032E00000256C7500256C6400257500256400259B
:1032F000750025640025532C2000554E4B4E2C2084
:1033000025750A0050414E49433A2041505F4261C1
:10331000726F3A3A7265616420756E7375636365A6
:10332000737366756C20666F72206D6F72652074A2
:1033300068616E203530306D7320696E2041505FBA
:103340004261726F3A3A63616C69627261746520BE
:103350005B335D0D0A0050414E49433A2041505FB6
:103360004261726F3A3A7265616420756E7375637B
:103370006365737366756C20666F72206D6F72651E
:10338000207468616E203530306D7320696E204185
:10339000505F4261726F3A3A63616C696272617444
:1033A00065205B325D0D0A0050414E49433A204191
:1033B000505F4261726F3A3A7265616420756E7354
:1033C00075636365737366756C20666F72206D6FCD
:1033D0007265207468616E203530306D7320696EBF
:1033E0002041505F4261726F3A3A63616C69627268
:1033F000617465205B315D0D0A0004024142535F38
:10340000505245535300000000000000000C000023
:10341000000000040354454D50000000000000006F
:103420000000000000000800000000000104414C02
:10343000545F4F4646534554000000000000001002
:10344000000000000000FF0000000000000000007D
:10345000000000000000000000000000000001006B
:10346000454E41424C4500000000000000000000B5
:103470000003000000803F04014449535400000051
:103480000000000000000000000004000000FA43FB
:103490000402414343454C000000000000000000CE
:1034A00000000008000080BB4400FF000000000096
:1034B000000000000000000000000000000000000C
:1034C000000050414E49433A2041505F4261726FC3
:1034D0005F4D533536313120746F6F6B206D6F72D5
:1034E00065207468616E20313030306D7320746FE8
:1034F00020696E697469616C697A650050414E4952
:10350000433A2041505F4261726F5F4D533536310F
:10351000313A206661696C656420746F2074616B58
:10352000652073657269616C2073656D6170686F89
:10353000726520666F7220696E69740050414E4951
:10354000433A2041505F4261726F5F4D53353631CF
:10355000313A204E554C4C2073657269616C206481
:1035600072697665720050414E49433A206661693E
:103570006C656420746F2074616B65205F73706983
:103580005F73656D203130302074696D657320691B
:103590006E206120726F772C20696E2041505F424F
:1035A00061726F5F4D53353631313A3A5F757064F1
:1035B0006174650050414E49433A2041505F426179
:1035C000726F5F4D533536313120646964206E6F00
:1035D00074206765742076616C69642053504920BB
:1035E00073656D617068726F65210050414E49438B
:1035F0003A2041505F4261726F5F4D533536313131
:1036000020646964206E6F74206765742076616C35
:10361000696420535049206465766963652064724B
:103620006976657221004661696C656420746F205B
:1036300067657420484D43353834332073656D61B8
:1036400070686F72650005014F465300000000006E
:10365000000000000000000000170000000000044F
:10366000024445430000000000000000000000008C
:10367000000023000000000001034C4541524E00B1
:1036800000000000000000000000000800000080B2
:103690003F010455534500000000000000000000F9
:1036A0000000000027000000803F01054155544FF5
:1036B0004445430000000000000000000028000016
:1036C00000803F01064D4F544354000000000000AD
:1036D000000000000000A4000000000005074D4F9E
:1036E000540000000000000000000000000000A5E1
:1036F000000000000001084F5249454E54000000F0
:103700000000000000000000160000000000010999
:1037100045585445524E414C000000000000000046
:103720000029000000000000FF0000000000000071
:103730000000000000000000000000000000000089
:10374000256C642E2530376C64002D006779726F0C
:103750005B25755D20646964206E6F7420636F6EF5
:1037600076657267653A20646966663D2566206401
:1037700070730A002A00496E6974204779726F00DD
:1037800020002A00496E697420416363656C004320
:10379000616C6962726174696F6E204641494C4583
:1037A000440A0043616C6962726174696F6E2073D0
:1037B00075636365737366756C0A005363616C6946
:1037C0006E675B25755D3A20252E326620252E32E8
:1037D0006620252E32660A004F6666736574735B39
:1037E00025755D3A20252E326620252E326620254D
:1037F0002E32660A00506C616365207665686963E5
:103800006C6520255320616E64207072657373208F
:10381000616E79206B65792E0A006F6E2069747372
:10382000204241434B006E6F7365205550006E6F10
:10383000736520444F574E006F6E20697473205299
:10384000494748542073696465006F6E206974733A
:10385000204C4546542073696465006C6576656C40
:10386000004E6F20494E53206261636B656E647336
:1038700020617661696C61626C6500546F6F206DC8
:10388000616E7920494E53206261636B656E64738B
:1038900000546F6F206D616E7920616363656C7396
:1038A00000546F6F206D616E79206779726F7300BD
:1038B000020050524F445543545F494400000000F9
:1038C0000000001F00000000000501414343534376
:1038D000414C00000000000000000000210000003A
:1038E000000005024143434F4646530000000000DC
:1038F00000000000002D00000000000503475952A1
:103900004F46465300000000000000000000390050
:103910000000000001044D5055364B5F46494C54A1
:103920004552000000000045000000000000FF00BC
:103930000000000000000000000000000000000087
:103940000000000000004661696C656420746F200F
:10395000626F6F74204D50553630303020352074F2
:10396000696D6573004D5055363030303A20556ED4
:1039700061626C6520746F206765742073656D618A
:1039800070686F72650056616C75657320646F6551
:10399000736E2774206D617463683B20777269745D
:1039A00074656E3A20253032783B20726561643A46
:1039B000202530327820006661696C656420746F60
:1039C00020626F6F74204D505536303030203520D6
:1039D00074696D65730054696D6564206F7574203A
:1039E00077616974696E6720666F7220757365729E
:1039F00020726573706F6E73650004024750535FE9
:103A00004741494E00000000000000000022000075
:103A100000803F01034750535F55534500000000AD
:103A20000000000000002C000000803F0404594109
:103A3000575F500000000000000000000000001A66
:103A400000CDCC4C3E040552505F500000000000F9
:103A500000000000000000001E00CDCC4C3E01061E
:103A600057494E445F4D41580000000000000000DF
:103A7000002D000000000005085452494D000000D0
:103A800000000000000000000000410000000000F5
:103A900001094F5249454E544154494F4E000000D0
:103AA0000000002E0000000000040A434F4D505F4C
:103AB0004245544100000000000000002800CDCC29
:103AC000CC3D010B4750535F4D494E534154530079
:103AD00000000000002F000000C04000FF000000B8
:103AE00000000000000000000000000000000000D6
:103AF000000000000200544F54414C000000000040
:103B0000000000000000000500000000000101525C
:103B100045535441525400000000000000000000D2
:103B200007000000000000FF00000000000000008F
:103B30000000000000000000000000000000000481
:103B40000050000000000000000000000000000025
:103B5000000000000000000000FF00000000000066
:103B60000000000000000000000000000000000055
:103B700000040050000000000000000000000000F1
:103B800000000000000000000000040149000000E7
:103B90000000000000000000000000000004000021
:103BA00000000004024400000000000000000000CB
:103BB0000000000000000800000000000203494D62
:103BC0004158000000000000000000000000000C50
:103BD000000000000000FF000000000000000000E6
:103BE00000000000000000000000000000000400D1
:103BF000524154455F52505F4D4158000000000053
:103C000000260000A08C460401524154455F595FD4
:103C10004D4158000000000000002A0000A00C46A2
:103C20000402534C45575F59415700000000000003
:103C30000000002E0000007A440403414343454C39
:103C40005F52505F4D4158000000000032000000FC
:103C500000000404414343454C5F595F4D41580007
:103C60000000000000360000000000010552415431
:103C7000455F46465F454E414200000000003A0065
:103C80000000000000FF0000000000000000000035
:103C900000000000000000000000000000040054CC
:103CA00048525F484F564552000000000000000097
:103CB00017000000E14300FF0000000000000000CA
:103CC00000000000000000000000000000000002F2
:103CD000004D494E00000000000000000000000000
:103CE00000000A000080894402015452494D00003E
:103CF00000000000000000000000000C000080BB7D
:103D00004402024D41580000000000000000000085
:103D1000000000000E000080ED44010352455600F3
:103D20000000000000000000000000000010000083
:103D300000803F0205445A0000000000000000001F
:103D400000000000000011000000000000FF000063
:103D50000000000000000000000000000000000063
:103D6000000000000008000000000000000000004B
:103D700000000000000000000000CF3C0000010136
:103D800046554E4354494F4E0000000000000000CD
:103D9000001D000000000000FF0000000000000007
:103DA0000000000000000000000000000000000013
:103DB00041505F4D6F746F72733A206661696C6534
:103DC0006420746F20637265617465207468726F1B
:103DD00074746C65206375727665000101544352FA
:103DE000565F454E41424C450000000000002E0049
:103DF0000000803F0102544352565F4D49445043F6
:103E0000540000000000002F000000504201035445
:103E10004352565F4D41585043540000000000008B
:103E200030000000BA4202055350494E5F41524DE6
:103E3000454400000000000000310000008C4200FA
:103E4000FF00000000000000000000000000000073
:103E50000000000000000000000102030405060746
:103E600001005F54595045000000000000000000B0
:103E700000000000000000000001015F50494E00FA
:103E80000000000000000000000000000100000031
:103E900080BF04025F5343414C494E47000000007D
:103EA000000000000006000000404004035F4F4691
:103EB00046534554000000000000000000000A00C6
:103EC0000000000001045F46554E4354494F4E0028
:103ED000000000000000000E000000000002055F6E
:103EE0004D494E5F434D00000000000000000000FF
:103EF0000F000000A04102065F4D41585F434D0096
:103F0000000000000000000000110000002F44012C
:103F1000075F53544F505F50494E000000000000AF
:103F200000000300000080BF02085F534554544C5A
:103F3000455F4D5300000000000000040000000039
:103F40000001095F524D45545249430000000000F2
:103F50000000000002000000803F00FF00000000A1
:103F60000000000000000000000000000000000051
:103F7000000000010050494E000000000000000059
:103F80000000000000000000000050410101504905
:103F90004E320000000000000000000000000001A0
:103FA00000000080BF00FF000000000000000000D3
:103FB0000000000000000000000000000000010000
:103FC00054524947475F54595045000000000000D3
:103FD0000000000000000001014455524154494FC7
:103FE0004E00000000000000000001000000204121
:103FF0000202534552564F5F4F4E00000000000032
:1040000000000002000080A2440203534552564FB4
:104010005F4F4646000000000000000004000080E2
:104020008944040454524947475F444953540000AB
:10403000000000000009000000000000FF00000078
:104040000000000000000000000000000000000070
:104050000000000001004D4F44450000000000003A
:1040600000000000000000310000000000050152C7
:10407000455452414354000000000000000000007D
:1040800042000000000005024E45555452414C00CC
:104090000000000000000000004E000000000005CD
:1040A00003434F4E54524F4C0000000000000000EC
:1040B00000005A00000000000104535441425F52C6
:1040C0004F4C4C00000000000000002E00000000DB
:1040D000000105535441425F54494C540000000014
:1040E000000000002F000000000001065354414270
:1040F0005F50414E00000000000000000030000052
:10410000000000010752435F494E5F524F4C4C0084
:104110000000000000003200000000000208414ED4
:10412000474D494E5F524F4C0000000000000035E3
:104130000000A08CC50209414E474D41585F524FC7
:104140004C00000000000000370000A08C45010A70
:1041500052435F494E5F54494C5400000000000038
:1041600000330000000000020B414E474D494E5FF6
:1041700054494C00000000000000390000A08CC52C
:10418000020C414E474D41585F54494C000000001D
:104190000000003B0000A08C45010D52435F494EDA
:1041A0005F50414E0000000000000000340000009D
:1041B0000000020E414E474D494E5F50414E0000F7
:1041C00000000000003D0000A08CC5020F414E47DA
:1041D0004D41585F50414E000000000000003F007C
:1041E00000A08C4501104A535449434B5F5350443F
:1041F0000000000000000041000000000000FF007F
:1042000000000000000000000000000000000000AE
:10421000000000000000040154435F5859000000F2
:104220000000000000000000001300000020400417
:104230000254435F5A00000000000000000000002C
:10424000000017000000A04000FF00000000000078
:10425000000000000000000000000000000000005E
:104260000004005241444955530000000000000082
:1042700000000000070000007A4404015241544548
:10428000000000000000000000000000000B000023
:1042900000A04100FF00000000000000000000003E
:1042A0000000000000000000000000000400535067
:1042B0004545440000000000000000000000000F21
:1042C000000000FA430401524144495553000000E4
:1042D00000000000000000001B0000004843040232
:1042E00053504545445F5550000000000000000059
:1042F00000130000007A43040353504545445F44D3
:104300004E000000000000000000170000001643EF
:1043100004044C4F49545F5350454544000000008D
:1043200000000007000000FA430405414343454CE8
:104330000000000000000000000000001F0000005E
:10434000C8420406414343454C5F5A000000000048
:10435000000000000023000000C84204074C4F4941
:10436000545F4A45524B00000000000000000B0063
:1043700000007A4400FF0000000000000000000080
:10438000000000000000000000000000008011405C
:1043900011407132733433321312113211129334CB
:1043A00013145352310021030406080B2D0A090788
:1043B00005040241C011C05112535473121112511D
:1043C00052731473323100210204050607080908EC
:1043D0000607062403020102000120012011C0018A
:1043E00011003132137413143312F112D31251002D
:1043F00001022325060746442342210001E0A031A3
:104400003213B43311121100112011005233121360
:1044100032112001222485042304020342410001B9
:10442000E0A051121413151315341332514001201A
:104430001152133231000122230405040504230123
:104440000382612001E011801132135415143332BC
:104450003140210201003172314102234423020123
:104460002201220102614001A01180511214133473
:1044700015143312314001020103020120521112BE
:1044800020212243042241022102A10001E0201147
:104490004051537413321140210203020302010000
:1044A0001112113200114122232221004102A18068
:1044B0000160116011001132337413121140016256
:1044C0000302032131121112114001020102030201
:1044D00001000100E121E0A01120121173343331F9
:1044E0002001620362401211121100110100010249
:1044F00001220001200100E1C00100118011001221
:10450000111312141334522001E20221203112112E
:1045100000110001002102010001402100024100C0
:1045200001E060114011121113121413141332110F
:10453000002122034201022100010011001211009A
:104540001120010041600100C10001401120016003
:10455000114051121312131433123100014203227D
:104560000102210001401100310011000100010091
:1045700001A0E10001A0018011203152931211002D
:1045800021C221002140310011201100010001E071
:10459000E16001E011001172731231002142030148
:1045A0000201022021401100112011600140116020
:1045B000010001022102000120014001A05132133B
:1045C0001253321120010201822100210001001149
:1045D0000031E0001100116021000102010201011F
:1045E0000021200100016011001152131214135216
:1045F000110041820102000100214011001100114F
:10460000A0110031001120812201010002010021CE
:104610000001601100521312131413323101000211
:1046200001220142010021000100011120110011AD
:1046300020114071001140010221020102010021FC
:104640000221000100010011001211123312341373
:1046500032112001020142012201004100016011DA
:1046600020110011001100511231206102012202BB
:104670000002010281201100121173341332110063
:10468000410201820100610001801100110091329C
:104690003140214201020200626140115214135460
:1046A000333100418201220001020041000160918A
:1046B0001211525120012201030102020082610005
:1046C00051335415143331002102012203424102B7
:1046D000A1803192133231004122030201030022F2
:1046E00003220102014011123395333101002201EE
:1046F0000342032221220102610001110011521321
:10470000125312310041220322030023020302014B
:1047100002212032131416151716153311200162C9
:1047200003020302032201A2414011125314131485
:1047300013321101000201020302030202000223EC
:1047400002032221203214163718171513121100F4
:10475000212203024302430103020382212011129A
:10476000131415341514321100016223020300439F
:10477000020342012012131518193A1715131100DC
:10478000210203026304E302030203020102401256
:10479000131415171516341220212243020300A307
:1047A000220100111215181C1E1D191613110002EA
:1047B0000103020304230403240304430423040326
:1047C0000203422011121415171836151331210255
:1047D0000302230203241E191512100E0C0B0A09E2
:1047E000090908080807060605040404030404046C
:1047F00000000000000000000000272621232523E0
:1048000025242722292A2A1C27282B333227252230
:104810002C333130370000000000000000000000A1
:10482000000001FFFFE000000000000001FFFFF0BA
:1048300000000000000001FFFFF800000000000081
:1048400001FFFFFE00000000000003FFFFFF00006B
:104850000000000003FFFFFFF000000000000FFF5A
:10486000FFFFFE00000003FFFFFC000007FC00004C
:104870007FFFFFFC000000000000001FFFFE0000A3
:1048800000000096918C87827D78736E69645F5A10
:1048900055504B46413C37322D28231E19140F0A20
:1048A000050004090E13181D22272C31363B404504
:1048B0004A4F54595E63686D72777C81868B909500
:1048C0009A9FA4A9AEB3AFAAA5A09B968F89837E19
:1048D00078736E69645F5A55504B47423E393530A4
:1048E0002C27231F1B16120E09050103070B10149A
:1048F000191D22262B2F34393D42474C51565B60FF
:10490000656B70757B80868C92979DA3A9AFB2ACC6
:10491000A6A09A948F827C76706B65605C57524E2D
:104920004A46413D3936322E2A26221F1B171310C4
:104930000C08040102060A0E12161A1E22262B2F3C
:1049400033383D41464B4F54595E64696F747A80E9
:10495000878D949BA2AAB1AEA69F979089826F681B
:10496000635E5955514D4946423F3C3835322E2BF6
:104970002824211E1A1714100D0A06030003060925
:104980000D1014181C2024282C3034393D41464A7F
:104990004F54585D62676D737980878F98A2ACB071
:1049A000A59A90867D766F55514D4A4744413F3CCC
:1049B0003A383533312E2B292623201D1A17131090
:1049C0000D0A070401010306090D1013171A1E2210
:1049D000262A2E32363A3E42464A4E53575B5F6491
:1049E000696E757C85909FB2A08D7D7067605A5509
:1049F0003E3C3A393736343332302F2E2C2A292791
:104A000024221F1C191613100D0A070402000305A7
:104A1000080A0D1013161A1D2125292D3135383C91
:104A20004043464A4D505356595B5E6165696F82FB
:104A30006D544D4A474442403E2E2E2D2C2C2B2A9D
:104A40002A2929282726252423211F1C1A17141058
:104A50000D0A07040101030507090C0E1013161AAD
:104A60001D2124282C3033373A3D40424447484AE0
:104A70004A4B4A48443D3019021621282B2D2E2F2F
:104A80002E2E06090C0F121517191B1C1B181104CA
:104A90000E2231383C3C3C3A3835322F2B2824202A
:104AA0001C1915110D09050102060A0E1115181C15
:104AB0001F222527292A2B2B29262119110800041A
:104AC000080A0A0A0807040200030616181A1C1E20
:104AD00020211F1712516063625F5D5956524E4A82
:104AE00046423E3935312C2824201B17130E0A0666
:104AF0000102060A0F13171B1F23262A2D313437F4
:104B0000393C3D3F3F3E3D39352F28211C171513B9
:104B100013131416A8ADB2B0ABA6A19C97928D88C2
:104B2000837E79746F6A65605B56514C47423D38AD
:104B3000332E29241F1A15100B060103080D121716
:104B40001C21262B30353A3F44494E53585D62674D
:104B50006C71767B80858A8F94999EA3A80100450D
:104B60004E41424C450000000000000000000000E3
:104B700002000000000001015459504500000000EF
:104B800000000000000000000003000000404001A1
:104B900002414354494F4E00000000000000000055
:104BA000000004000000803F0403414C545F4D416D
:104BB000580000000000000000000005000000C8D0
:104BC00042040452414449555300000000000000D3
:104BD0000000000009000000964304054D415247C3
:104BE000494E00000000000000000000000D000021
:104BF00000004000FF000000000000000000000076
:104C00000000000000000000000000005363686521
:104C100064756C6572206F76657272756E20746152
:104C2000736B5B25755D202825752F2575290A0076
:104C30005363686564756C657220736C6970207469
:104C400061736B5B25755D202825752F25752F25D4
:104C500075290A0001004445425547000000000044
:104C60000000000000000000000000000000FF0045
:104C70000000000000000000000000000000000034
:104C80000000000000000100524F4C4C00000000EA
:104C900000000000000000000000000000803F0154
:104CA000015049544348000000000000000000008B
:104CB000000001000000004001025448524F5454CB
:104CC0004C45000000000000000000030000004010
:104CD000400103594157000000000000000000009F
:104CE0000000000002000000804000FF0000000003
:104CF00000000000000000000000000000000000B4
:104D000000000001004D4F4E49544F52000000007A
:104D10000000000000000000000000000101564FEC
:104D20004C545F50494E000000000000000000019C
:104D300000000050410102435552525F50494E005D
:104D400000000000000000000200000040410403D9
:104D5000564F4C545F4D554C54000000000000006D
:104D60000003009A9921410404414D505F5045527F
:104D7000564F4C540000000000000700000088411E
:104D80000405414D505F4F46465345540000000016
:104D90000000000B000000000003064341504143A7
:104DA0004954590000000000000000000F000040BE
:104DB0004E450107564F4C54325F50494E0000009B
:104DC00000000000001300000080BF0408564F4C94
:104DD00054325F4D554C5400000000000000140098
:104DE0000000803F00FF0000000000000000000005
:104DF0000000000000000000000000000000FF00B4
:104E000000000000000000000000000000000000A2
:104E1000000000000000AEA3EFB20CC27FCA74CE47
:104E200078CE4ECFA0032604800458A711241FBEBD
:104E3000CFEFD1E2DEBFCDBF00E00CBF15E0A0E0B8
:104E4000B2E0E4ECFDEC03E00BBF02C007900D9272
:104E5000AA38B107D9F718E1AAE8B5E001C01D9258
:104E6000A431B107E1F71EE4CAE2DEE400E006C0C7
:104E700022970109FE010BBF0F94A7E4C631D107A9
:104E800080E00807A9F70E9462950D94D1E60C9482
:104E900000000895E0915411F09155110084F185BE
:104EA000E02D84E591E119950895A9E1B0E0EBE5E5
:104EB000F7E20D9411E4962FE9E1BE016F5F7F4F99
:104EC000DB01FE2F1D92FA95E9F7F3EAF983F5E984
:104ED000FA83EB838C839D832E833F834887598796
:104EE000EA86FB860C871D87AE86BF86C88AD98A6C
:104EF0008FA198A5A9A5BAA58A8B9B8BAC8BBD8BDE
:104F00008BA59CA5ADA5BEA58E8B9F8BA88FB98FB9
:104F1000E0915A12F0915B120084F185E02D49E195
:104F200050E08AE592E119956996EAE00D942DE446
:104F3000A6E0B0E0EEE9F7E20D9419E4BE016F5F80
:104F40007F4F96E0FB0111929A95E9F793EA9983D6
:104F500095E99A8393E09B838C838091E3129091EF
:104F6000E4129E838D83E0915A12F0915B120084CB
:104F7000F185E02D46E050E08AE592E1199526960C
:104F8000E2E00D9435E4A5E0B0E0E9ECF7E20D9441
:104F900019E4DE01119695E0FD0111929A95E9F769
:104FA00093EA998395E99A8393E19B838C836D833C
:104FB000E0915A12F0915B120084F185E02D45E0FA
:104FC00050E0BD018AE592E119952596E2E00D9445
:104FD00035E4A0917A15B0917B15ED91FC91119774
:104FE0000280F381E02DCD011995089580917A1505
:104FF00090917B15DC01ED91FC910480F581E02D11
:105000001995089580917A1590917B15DC01ED91A9
:10501000FC910680F781E02D199508958F929F925B
:10502000AF92BF92CF92DF92EF92FF9280904F06A5
:1050300090905006A0905106B090520620E030E0CB
:10504000A901C501B4010F94C7DE882309F482C009
:10505000C0903F06D0904006E0904106F090420696
:1050600020E030E0A901C701B6010F94C7DE882314
:1050700009F470C08092491490924A14A0924B1483
:10508000B0924C1480914B0690914C06A0914D0625
:10509000B0914E0680934D1490934E14A0934F14EC
:1050A000B09350148091470690914806A09149060C
:1050B000B0914A068093511490935214A0935314C4
:1050C000B09354148091430690914406A0914506F4
:1050D000B09146068093411590934215A0934315D5
:1050E000B0934415C0926714D0926814E09269148A
:1050F000F0926A1480913B0690913C06A0913D0687
:10510000B0913E0680936B1490936C14A0936D1431
:10511000B0936E148091370690913806A0913906AD
:10512000B0913A0680936F1490937014A093711409
:10513000B09372148091330690913406A091350695
:10514000B09136068093451590934615A093471568
:10515000B0934815FF90EF90DF90CF90BF90AF9045
:105160009F908F9008958F929F92AF92BF92CF920F
:10517000DF92EF92FF9280904F0690905006A090A1
:105180005106B090520620E030E0A901C501B401FB
:105190000F94C7DE882309F483C0C0903F06D090E7
:1051A0004006E0904106F090420620E030E0A90180
:1051B000C701B6010F94C7DE882309F471C080923D
:1051C000491490924A14A0924B14B0924C142DECB6
:1051D0003CEC4CEC5DE3C501B4010F9494E16093A9
:1051E0004D1470934E1480934F14909350148091EB
:1051F000470690914806A0914906B0914A068093CF
:10520000511490935214A0935314B093541480915A
:10521000430690914406A0914506B09146068093BE
:10522000411590934215A0934315B0934415C09235
:105230006714D0926814E0926914F0926A142DEC0D
:105240003CEC4CEC5DE3C701B6010F9494E1609334
:105250006B1470936C1480936D1490936E14809102
:10526000370690913806A0913906B0913A0680939E
:105270006F1490937014A0937114B0937214809172
:10528000330690913406A0913506B091360680938E
:10529000451590934615A0934715B093481503C044
:1052A00062E08EE070DEFF90EF90DF90CF90BF90D5
:1052B000AF909F908F900895A0E0B0E0E2E6F9E211
:1052C0000D940BE4EC018B0128813981FB01808175
:1052D0009181121613061CF497FF07C010C0211508
:1052E000310519F01816190654F0AC0197FF04C0E7
:1052F00044275527481B590B493057401CF09983C8
:1053000088839BC0B901882777FD8095982FE0900E
:10531000CE12F090CF12121613060CF046C00F9466
:1053200069DF4B015C012DEC3CEC4CE45DE30F9438
:1053300094E12B013C011E141F04ACF4B701882733
:1053400077FD8095982F0F9469DF6B017C019B019D
:10535000AC01B201C3010F9444E118168CF0260190
:105360009E2D8F2D0FC020E030E040E85FE30F94CA
:1053700044E118162CF0412C512C90E88FE302C028
:10538000962D872D9201492F582FC501B4010F94F6
:10539000E9DD0F9436DF79836883F801208131815C
:1053A000621773070CF047C045C00F9469DF4B01CB
:1053B0005C0190582DEC3CEC4CE45DE30F9494E1DF
:1053C0002B013C011E141F04ACF4B701882777FDA4
:1053D0008095982F0F9469DF6B017C019B01AC01D4
:1053E000B201C3010F9444E118168CF026019E2DE2
:1053F0008F2D0FC020E030E040E85FE30F9444E1E0
:1054000018162CF0412C512C90E88FE302C0962DF9
:10541000872D9201492F582FC501B4010F94EADD61
:105420000F9436DF79836883F80120813181261754
:1054300037070CF4B90179836883CDB7DEB7E0E1B3
:105440000D9427E4E9EDF5E08081887F8560808315
:1054500082E390E09093F2058093F1051092DC05D1
:105460001092DB0580910806909109069093F6054D
:105470008093F5050895E9EDF5E08081877C8862E9
:10548000808382E390E09093F4058093F30510927B
:10549000DE051092DD0580910A0690910B0690932F
:1054A000F8058093F70508958B3039F020F4835088
:1054B000853028F402C0803111F481E0089580E045
:1054C0000895823010F481E0089580E0089580917D
:1054D000180C80FF18C08091061290910712039754
:1054E00094F08091DB1181FD0EC080910A0C83FD48
:1054F0000AC09091D40590FD06C085FB882780F9ED
:1055000091E08927089580E0089520E030E0FC01D3
:10551000E20FF31F12821382148215822C5F3F4F19
:105520002C313105A1F7FC01168E0895FC01968DF2
:1055300081E0890F868FDF0124E0929FA00DB11DCD
:10554000112412964D935D936D937C93159787303C
:1055500008F0168ECB01BA010895A7E1B0E0E3EBA5
:10556000FAE20D9417E48E010F5F1F4F87E1D80117
:105570001D928A95E9F783EA898385E98A8381E028
:105580008B8380917A1590917B15DC01ED91FC91D4
:105590000480F581E02D19956C837D838E839F8334
:1055A00060916B0970916C0980916D0990916E0901
:1055B0000F9436DF798768878091360E9091370E89
:1055C0009B878A8760916F0970917009809171093A
:1055D000909172090F9436DF7D876C8780913A0E27
:1055E00090913B0E9F878E8760917309709174092B
:1055F00080917509909176090F943BDF798B688BC8
:1056000080913E0E90913F0E9B8B8A8B88E29EE0AC
:105610000F94825520E030E048EC52E40F9494E17E
:105620000F943BDF7D8B6C8B88E29EE00F94BB5523
:1056300020E030E048EC52E40F9494E10F943BDF1B
:105640007F8B6E8BE0915A12F0915B120084F18592
:10565000E02D47E150E0B8018AE592E1199567969F
:10566000E4E00D9433E488E996E00F94B2AE80E074
:1056700097E00D9426A80895CF93DF93EC018091D5
:10568000380C882329F0BE0188E39CE00E94EBD807
:1056900080910F0D882329F0BE018FE09DE00E94CC
:1056A000EBD8DF91CF9108958CE190E0E5CF08959C
:1056B00080E090E0E1CF08958091380C882331F0AC
:1056C00060E070E088E39CE00E940ADB80910F0DAF
:1056D000882331F060E070E08FE09DE00C940ADBFD
:1056E0000895A0E0B0E0E7E7FBE20D9413E48091B9
:1056F000C20A9091C30AA091C40A6091AF1270913E
:10570000B0129B01442737FD4095281739074A07F7
:1057100044F49C014A2F552747FD5095CA01B90111
:1057200004C0882777FD8095982F0F9469DF8B013F
:10573000D82FC92F88E696E00F946ED480FF26C03C
:105740002091750630917606409177065091780643
:1057500060916D0670916E0680916F069091700653
:105760000F94E9DD20E030E048EC52E40F9494E13E
:105770006B017C019B01AC01B8018D2F9C2F0F9414
:10578000C7DE87FD03C08601DE2DCF2DB8018D2F2A
:105790009C2FCDB7DEB7E8E00D942FE40F931F9355
:1057A000CF93DF93EC018B018091380C882331F08B
:1057B000AB01BE0188E39CE00E94A1D980910F0D4E
:1057C000882331F0A801BE018FE09DE00E94A1D99D
:1057D000DF91CF911F910F9108958DE792E10D9484
:1057E0003DD908958091C212882321F084E590E18B
:1057F0000D949F190895A0E0B0E0E1E0FCE20D9463
:105800000FE45A01E901E12CF12C00E81FE320E04C
:1058100030E0A9010F9482226B017C01B501882739
:1058200077FD8095982F0F9469DF9B01AC01C7012C
:10583000B6010F9494E14B015C01A701960160E071
:1058400070E080E89FE30F94E9DD6B017C01BE010D
:10585000882777FD8095982F0F9469DF9B01AC0115
:10586000C701B6010F9494E19B01AC01C501B401DD
:105870000F94EADD0F9436DFCB01CDB7DEB7ECE055
:105880000D942BE4A8E0B0E0E8E4FCE20D9409E418
:105890001C014A015B0109831A832B833C83A6DB2D
:1058A0006B017C018091940590919505A0919605DE
:1058B000B0919705A7019601281B390B4A0B5B0B8A
:1058C000DA01C9010091DA0A1091DB0A893E93409E
:1058D000A105B10550F1B801882777FD8095982F73
:1058E0000F9469DFA50194010F94EADD2B013C01BF
:1058F0008091C20A9091C30AA091C40A9C014A2FC8
:10590000552747FD5095CA01B9010F9469DF9B01E6
:10591000AC01C301B2010F94E9DD6093D50A709325
:10592000D60A8093D70A9093D80AC0929405D09251
:105930009505E0929605F09297052101662457FCA3
:105940006094762C37FE05C08091670B82FF08C0FB
:1059500025C02114310411F18091670B83FD1EC015
:10596000C301B2010F9469DF29813A814B815C81C7
:105970000F9494E19B01AC016091D50A7091D60A15
:105980008091D70A9091D80A0F94EADD6093D50AE6
:105990007093D60A8093D70A9093D80AB8018827C3
:1059A00077FD8095982F0F9469DF6B017C01209122
:1059B00090083091910840919208509193080F946B
:1059C000EADD69837A838B839C8320918C083091F4
:1059D0008D0840918E0850918F08C701B6010F9431
:1059E000E9DD9B01AC016091D50A7091D60A8091E6
:1059F000D70A9091D80AE980FA800B811C810F9414
:105A000082226B017C016093D50A7093D60A809341
:105A1000D70A9093D80A6091DA0A7091DB0A882736
:105A200077FD8095982F0F9469DF9B01AC01C7012A
:105A3000B6010F94E9DD6B017C018091C20A90915F
:105A4000C30AA091C40A9C014A2F552747FD5095CF
:105A5000CA01B9010F9469DF9B01AC01C501B40112
:105A60000F94E9DD9B01AC01C701B6010F94E9DD9C
:105A70002091B1123091B2124091B3125091B412F0
:105A80000F9494E1E12CF12C06E113E420E030E0E6
:105A900046E153EC0F9482229B01AC01C301B20199
:105AA0002D833E834F8358870F9469DF2D813E817C
:105AB0004F8158850F94EADD2896E2E10D9425E4A4
:105AC000A0E0B0E0E6E6FDE20D940FE48B017A0180
:105AD000E90144E951E16CE67EEE0F94C5226C01C8
